S0120000584D4547415F413342552E7372656336
S11300000C9425100C9446100C9446100C94461035
S11300100C9446100C9446100C9446100C94461004
S11300200C9446100C9446100C9446100C944610F4
S11300300C9446100C9446100C94AF120C94461079
S11300400C9446100C9446100C9446100C944610D4
S11300500C9446100C9446100C9446100C944610C4
S11300600C9446100C9446100C9446100C944610B4
S11300700C9446100C9446100C9446100C944610A4
S11300800C9446100C9446100C9446100C94461094
S11300900C9446100C9446100C9446100C94461084
S11300A00C9446100C9446100C9446100C94461074
S11300B00C9446100C9446100C9446100C94461064
S11300C00C9446100C9446100C9446100C94461054
S11300D00C9446100C9446100C9446100C94461044
S11300E00C9446100C9446100C9446100C94461034
S11300F00C9446100C9446100C9446100C94461024
S11301000C941B130C9446100C9446100C9446103B
S11301100C9446100C9446100C9446100C94461003
S11301200C9446100C9446100C9446100C944610F3
S11301300C9446100C9446100C9446100C944610E3
S11301400C9446100C9446100C9446100C944610D3
S11301500C9446100C9446100C9446100C944610C3
S11301600C9446100C9446100C9446100C944610B3
S11301700C9446100C9446100C9446100C944610A3
S11301800C9446100C9446100C9446100C94461093
S11301900C9446100C9446100C9446100C94461083
S11301A00C9446100C9446100C9446100C94461073
S11301B00C9446100C9446100C9446100C94461063
S11301C00C9446100C9446100C9446100C94461053
S11301D00C9446100C9446100C9446100C94481041
S11301E00C9446100C9446100C9446100C94461033
S11301F00C9446100C9446100C9446101123292399
S113020038234723702380233524A923CF23D623DF
S1130210DD23EC2315240C9446280C94EC230C9435
S1130220CF230C94D6230C94A6120C94A9120C94EC
S113023097120C949D120C9443280C9470230C94E4
S113024015240C9429230C9444280C944E280C94C3
S113025045280C9462110C94A9230C944C280C94FA
S113026080230C9438230C9442280C94DD230C94A2
S113027049280C9435240C94A3120C944F280C9404
S113028047230C94AC120C9411230C9450286364EF
S1130290696E6F70737578585B00485454502F31F1
S11302A02E3120323030204F4B0D0A436F6E74656F
S11302B06E742D547970653A20746578742F68745F
S11302C06D6C0D0D0A0A3C21444F4354595045208E
S11302D068746D6C3E0A3C68746D6C206C616E676A
S11302E03D22656E223E0A3C686561643E0A3C6DAF
S11302F065746120636861727365743D2255544668
S11303002D38223E0A3C7469746C653E506F7765E3
S11303107220537570706C7920436F6E74726F6CB9
S11303203C2F7469746C653E0A3C7374796C653E49
S11303300A626F6479207B0A666F6E742D66616D44
S1130340696C793A20417269616C2C2073616E7317
S11303502D73657269663B0A646973706C61793ADE
S113036020666C65783B0A666C65782D64697265F5
S11303706374696F6E3A20636F6C756D6E3B0A61CE
S11303806C69676E2D6974656D733A2063656E746C
S113039065723B0A70616464696E673A203230703A
S11303A0783B0A6261636B67726F756E643A2023EF
S11303B06630663066303B0A7D0A2E636F6E746168
S11303C0696E6572207B0A6D61782D776964746843
S11303D03A2034303070783B0A77696474683A2084
S11303E0313030253B0A6261636B67726F756E64EE
S11303F03A2077686974653B0A70616464696E6762
S11304003A20323070783B0A626F726465722D72E2
S113041061646975733A20313070783B0A626F7891
S11304202D736861646F773A20302030203130704A
S113043078207267626128302C20302C20302C20E8
S1130440302E31293B0A7D0A2E7469746C65207B39
S11304500A746578742D616C69676E3A2063656E01
S11304607465723B0A6D617267696E2D626F747494
S11304706F6D3A20323070783B0A7D0A2E726F77A6
S11304802C202E696E7075742D726F772C202E704F
S113049072657365742D726F77207B0A646973705B
S11304A06C61793A20666C65783B0A6A7573746985
S11304B066792D636F6E74656E743A207370616330
S11304C0652D6265747765656E3B0A616C69676E5C
S11304D02D6974656D733A2063656E7465723B0AA9
S11304E06D617267696E2D626F74746F6D3A20313D
S11304F03070783B0A7D0A2E726F77206C616265DA
S11305006C2C202E696E7075742D726F77206C615F
S113051062656C2C202E7072657365742D726F7712
S1130520206C6162656C207B0A666C65783A2031C8
S11305303B0A7D0A2E726F7720696E7075742C20C9
S11305402E696E7075742D726F7720696E70757474
S11305502C202E7072657365742D726F7720696E0E
S1130560707574207B0A77696474683A203130307E
S113057070783B0A746578742D616C69676E3A20F3
S113058063656E7465723B0A7D0A2E627574746FBE
S11305906E2D726F77207B0A646973706C61793A8F
S11305A020666C65783B0A6A7573746966792D6395
S11305B06F6E74656E743A2073706163652D626545
S11305C0747765656E3B0A6D617267696E2D746F31
S11305D0703A20323070783B0A7D0A2E627574744A
S11305E06F6E207B0A77696474683A203438253B3F
S11305F00A70616464696E673A20313070783B0A2E
S11306006261636B67726F756E643A2023303037B2
S11306106266663B0A636F6C6F723A20776869742E
S1130620653B0A626F726465723A206E6F6E653B59
S11306300A626F726465722D7261646975733A201F
S11306403570783B0A637572736F723A20706F6904
S11306506E7465723B0A7D0A2E627574746F6E3A0D
S1130660686F766572207B0A6261636B67726F756F
S11306706E643A20233030353662333B0A7D0A2ECD
S11306807072657365742D726F77207B0A64697369
S1130690706C61793A20666C65783B0A6A7573748C
S11306A06966792D636F6E74656E743A2073706138
S11306B063652D6265747765656E3B0A6D6172676B
S11306C0696E2D746F703A20323070783B0A7D0A5F
S11306D02E7072657365742D627574746F6E207BF1
S11306E00A77696474683A203332253B0A7061647E
S11306F064696E673A20313070783B0A6261636BDB
S113070067726F756E643A20233238613734353B33
S11307100A636F6C6F723A2077686974653B0A628A
S11307206F726465723A206E6F6E653B0A626F7217
S11307306465722D7261646975733A203570783B13
S11307400A637572736F723A20706F696E746572A2
S11307503B0A7D0A2E7072657365742D627574741C
S11307606F6E3A686F766572207B0A6261636B67AD
S1130770726F756E643A20233231383833383B0A4D
S11307807D0A2E736570617261746F72207B0A77C3
S1130790696474683A20313030253B0A68656967BA
S11307A068743A203170783B0A6261636B67726FD8
S11307B0756E643A20236464643B0A6D61726769F0
S11307C06E3A203230707820303B0A7D0A2E726FE8
S11307D077202E7370616365642D696E7075742063
S11307E07B0A6D617267696E2D6C6566743A20319F
S11307F03070783B0A7D0A2E7374617475732D69A9
S11308006E64696361746F72207B0A7769647468CB
S11308103A20323070783B0A6865696768743A2018
S1130820323070783B0A626F726465722D72616453
S11308306975733A203530253B0A6261636B6772D0
S11308406F756E643A20236363633B202F2A204430
S1130850656661756C7420746F2067726179202AF3
S11308602F0A7D0A2E696E64696361746F722D6349
S11308706F6E7461696E6572207B0A646973706C53
S113088061793A20666C65783B0A666C65782D64FC
S11308906972656374696F6E3A20636F6C756D6E0F
S11308A03B0A616C69676E2D6974656D733A2063E8
S11308B0656E7465723B0A7D0A2E696E64696361B4
S11308C0746F722D6C6162656C207B0A6D61726756
S11308D0696E2D746F703A203570783B0A746578B0
S11308E0742D616C69676E3A2063656E7465723B42
S11308F00A7D0A2E636865636B626F782D636F6E81
S11309007461696E6572207B0A646973706C6179C5
S11309103A20666C65783B0A616C69676E2D697470
S1130920656D733A2063656E7465723B0A6D61721E
S113093067696E2D6C6566743A20313070783B0AB5
S11309407D0A2E636865636B626F782D636F6E74C6
S113095061696E6572206C6162656C207B0A6D61F1
S11309607267696E2D6C6566743A203570783B0A3F
S11309707D0A3C2F7374796C653E0A3C2F6865616F
S1130980643E0A3C626F64793E0A3C646976206383
S11309906C6173733D22636F6E7461696E6572225C
S11309A03E0A3C683120636C6173733D2274697440
S11309B06C65223E506F77657220537570706C7948
S11309C020436F6E74726F6C3C2F68313E0A3C6436
S11309D0697620636C6173733D22726F77223E0ADD
S11309E03C6C6162656C3E50726573657420416D48
S11309F070202F20444D4D3A3C2F6C6162656C3E53
S1130A000A3C696E70757420747970653D22746552
S1130A107874222069643D22616D702D736574229F
S1130A2020726561646F6E6C7920636C6173733DD1
S1130A30227370616365642D696E707574223E0A59
S1130A403C696E70757420747970653D22746578A4
S1130A5074222069643D22616D702D646D6D2220C5
S1130A60726561646F6E6C7920636C6173733D228F
S1130A707370616365642D696E707574223E0A3CFF
S1130A802F6469763E0A3C64697620636C617373F3
S1130A903D22726F77223E0A3C6C6162656C3E5067
S1130AA0726573657420566F6C74202F20444D4D0D
S1130AB03A3C2F6C6162656C3E0A3C696E707574D9
S1130AC020747970653D2274657874222069643DD0
S1130AD022766F6C742D7365742220726561646F65
S1130AE06E6C7920636C6173733D2273706163650E
S1130AF0642D696E707574223E0A3C696E7075745B
S1130B0020747970653D2274657874222069643D8F
S1130B1022766F6C742D646D6D2220726561646F32
S1130B206E6C7920636C6173733D227370616365CD
S1130B30642D696E707574223E0A3C2F6469763E9A
S1130B400A3C64697620636C6173733D22726F772B
S1130B50223E0A3C6C6162656C3E57617474202DC0
S1130B60205761747420444D4D3A3C2F6C6162658A
S1130B706C3E0A3C696E70757420747970653D2210
S1130B8074657874222069643D22776174742D64DD
S1130B906973706C61792220726561646F6E6C791F
S1130BA03E0A3C2F6469763E0A3C64697620636C95
S1130BB06173733D22696E7075742D726F77223E76
S1130BC00A3C6C6162656C20666F723D22616D70D7
S1130BD02D696E707574223E536574204E657720BE
S1130BE0416D703A3C2F6C6162656C3E0A3C696EE3
S1130BF070757420747970653D2274657874222050
S1130C0069643D22616D702D696E707574223E0AAF
S1130C103C2F6469763E0A3C64697620636C617398
S1130C20733D22696E7075742D726F77223E0A3C93
S1130C306C6162656C20666F723D22766F6C742DF8
S1130C40696E707574223E536574204E6577205624
S1130C506F6C743A3C2F6C6162656C3E0A3C696E41
S1130C6070757420747970653D22746578742220DF
S1130C7069643D22766F6C742D696E707574223EC2
S1130C800A3C2F6469763E0A3C64697620636C6191
S1130C9073733D22627574746F6E2D726F77223E8A
S1130CA00A3C64697620636C6173733D22696E64E7
S1130CB0696361746F722D636F6E7461696E6572BE
S1130CC0223E0A3C64697620636C6173733D22732F
S1130CD074617475732D696E64696361746F7222D3
S1130CE02069643D227374617475732D696E64693F
S1130CF06361746F72223E3C2F6469763E0A3C64E1
S1130D00697620636C6173733D22696E6469636103
S1130D10746F722D6C6162656C223E4F75743C2F4A
S1130D206469763E0A3C2F6469763E0A3C646976BF
S1130D3020636C6173733D22696E64696361746FCF
S1130D40722D636F6E7461696E6572223E0A3C6433
S1130D50697620636C6173733D2273746174757377
S1130D602D696E64696361746F72222069643D2227
S1130D706572722D696E64696361746F72223E3CA0
S1130D802F6469763E0A3C64697620636C617373F0
S1130D903D22696E64696361746F722D6C61626572
S1130DA06C223E4572723C2F6469763E0A3C2F6485
S1130DB069763E0A3C64697620636C6173733D22F4
S1130DC0696E64696361746F722D636F6E746169B7
S1130DD06E6572223E0A3C64697620636C617373AB
S1130DE03D227374617475732D696E6469636174F3
S1130DF06F72222069643D22696E302D696E6469C8
S1130E006361746F72223E3C2F6469763E0A3C64CF
S1130E10697620636C6173733D22696E64696361F2
S1130E20746F722D6C6162656C223E494E303C2FAA
S1130E306469763E0A3C2F6469763E0A3C646976AE
S1130E4020636C6173733D22696E64696361746FBE
S1130E50722D636F6E7461696E6572223E0A3C6422
S1130E60697620636C6173733D2273746174757366
S1130E702D696E64696361746F72222069643D2216
S1130E80696E312D696E64696361746F72223E3CD0
S1130E902F6469763E0A3C64697620636C617373DF
S1130EA03D22696E64696361746F722D6C61626561
S1130EB06C223E494E313C2F6469763E0A3C2F64D5
S1130EC069763E0A3C64697620636C6173733D22E3
S1130ED0696E64696361746F722D636F6E746169A6
S1130EE06E6572223E0A3C64697620636C6173739A
S1130EF03D227374617475732D696E6469636174E2
S1130F006F72222069643D22696E322D696E6469B4
S1130F106361746F72223E3C2F6469763E0A3C64BE
S1130F20697620636C6173733D22696E64696361E1
S1130F30746F722D6C6162656C223E494E323C2F97
S1130F406469763E0A3C2F6469763E0A0A3C646909
S1130F507620636C6173733D22636865636B626FB3
S1130F60782D636F6E7461696E6572223E0A3C6906
S1130F706E70757420747970653D22636865636B67
S1130F80626F78222069643D2272656D6F74652DED
S1130F90636F6E74726F6C2D636865636B626F78D8
S1130FA0223E0A3C6C6162656C20666F723D22725F
S1130FB0656D6F74652D636F6E74726F6C2D6368ED
S1130FC065636B626F78223E52656D6F7465204372
S1130FD06F6E74726F6C3C2F6C6162656C3E0A3C80
S1130FE02F6469763E0A3C2F6469763E0A0A3C64A3
S1130FF0697620636C6173733D22627574746F6EDD
S11310002D726F77223E0A3C627574746F6E206392
S11310106C6173733D22627574746F6E22207374F5
S1131020796C653D226D617267696E2D6C656674BD
S11310303A206175746F3B22206F6E636C69636B39
S11310403D2273657456616C7565732829223E537D
S113105065742056616C7565733C2F627574746F8A
S11310606E3E0A3C2F6469763E0A3C6469762063CE
S11310706C6173733D22627574746F6E2D726F7739
S1131080223E0A3C627574746F6E20636C617373E4
S11310903D22627574746F6E22206F6E636C696397
S11310A06B3D22636F6E74726F6C44657669636521
S11310B02827707375272C276F6E2729223E5475B5
S11310C0726E20505355204F6E3C2F627574746FAE
S11310D06E3E0A3C627574746F6E20636C61737348
S11310E03D22627574746F6E22206F6E636C696347
S11310F06B3D22636F6E74726F6C446576696365D1
S11311002827707375272C276F66662729223E547B
S113111075726E20505355204F66663C2F6275746D
S1131120746F6E3E0A3C2F6469763E0A3C646976AD
S113113020636C6173733D22736570617261746FB7
S113114072223E3C2F6469763E0A3C6469762063D1
S11311506C6173733D22627574746F6E2D726F7758
S1131160223E0A3C627574746F6E20636C61737303
S11311703D22627574746F6E22206F6E636C6963B6
S11311806B3D22636F6E74726F6C44657669636540
S1131190282766616E272C276F6E2729223E5475F7
S11311A0726E2046616E204F6E3C2F627574746FB0
S11311B06E3E0A3C627574746F6E20636C61737367
S11311C03D22627574746F6E22206F6E636C696366
S11311D06B3D22636F6E74726F6C446576696365F0
S11311E0282766616E272C276F66662729223E54BE
S11311F075726E2046616E204F66663C2F62757470
S1131200746F6E3E0A3C2F6469763E0A3C646976CC
S113121020636C6173733D22736570617261746FD6
S113122072223E3C2F6469763E0A3C6469762063F0
S11312306C6173733D227072657365742D726F7780
S1131240223E0A3C627574746F6E20636C61737322
S11312503D227072657365742D627574746F6E22AD
S1131260206F6E636C69636B3D22736574507265A5
S1131270736574283129223E35562031413C2F6252
S11312807574746F6E3E0A3C627574746F6E20637D
S11312906C6173733D227072657365742D6275742D
S11312A0746F6E22206F6E636C69636B3D2273658D
S11312B074507265736574283229223E3132562087
S11312C032413C2F627574746F6E3E0A3C627574D1
S11312D0746F6E20636C6173733D22707265736505
S11312E0742D627574746F6E22206F6E636C696303
S11312F06B3D2273657450726573657428332922BB
S11313003E3234562032413C2F627574746F6E3E07
S11313100A3C2F6469763E0A3C2F6469763E0A3C97
S11313207363726970743E0A66756E6374696F6E76
S113133020666574636856616C7565732829207B23
S11313400A666574636828272F6765745F76616C25
S11313507327290A2E7468656E28726573706F6E20
S11313607365203D3E20726573706F6E73652E6ADF
S1131370736F6E2829290A2E7468656E2864617457
S113138061203D3E207B0A646F63756D656E742E2B
S1131390676574456C656D656E7442794964282788
S11313A0616D702D73657427292E76616C756520C7
S11313B03D20646174612E616D702E746F4669788E
S11313C065642832293B0A646F63756D656E742EFB
S11313D0676574456C656D656E7442794964282748
S11313E0766F6C742D73657427292E76616C756520
S11313F0203D20646174612E766F6C742E746F4688
S1131400697865642832293B0A646F63756D656E7B
S1131410742E676574456C656D656E7442794964B4
S11314202827776174742D646973706C6179272936
S11314302E76616C7565203D20646174612E776140
S113144074742E746F46697865642832293B0A6483
S11314506F63756D656E742E676574456C656D6537
S11314606E74427949642827616D702D646D6D270F
S1131470292E76616C7565203D20646174612E614E
S11314806D70444D4D2E746F466978656428322919
S11314903B0A646F63756D656E742E676574456C85
S11314A0656D656E74427949642827766F6C742D76
S11314B0646D6D27292E76616C7565203D2064610D
S11314C074612E766F6C74444D4D2E746F4669783A
S11314D065642832293B0A0A2F2F205570646174F1
S11314E065207468652073746174757320696E6413
S11314F0696361746F7220636F6C6F7220626173D1
S11315006564206F6E206F757453746174650A632B
S11315106F6E737420737461747573496E64696358
S113152061746F72203D20646F63756D656E742EF7
S1131530676574456C656D656E74427949642827E6
S11315407374617475732D696E64696361746F7209
S113155027293B0A69662028646174612E6F7574BB
S11315605374617465203D3D3D203029207B0A730E
S11315707461747573496E64696361746F722E73F8
S113158074796C652E6261636B67726F756E64202B
S11315903D202723636363273B202F2F206772613D
S11315A0790A7D20656C73652069662028646174FE
S11315B0612E6F75745374617465203D3D3D203117
S11315C029207B0A737461747573496E646963615D
S11315D0746F722E7374796C652E6261636B6772BB
S11315E06F756E64203D20272332386137343527E8
S11315F03B202F2F20677265656E0A7D20656C7312
S1131600652069662028646174612E6F7574537453
S1131610617465203D3D3D203229207B0A7374614D
S1131620747573496E64696361746F722E7374792F
S11316306C652E6261636B67726F756E64203D200A
S11316402723646333353435273B202F2F207265DD
S1131650640A7D0A0A2F2F20557064617465207412
S11316606865206572726F7220696E646963617463
S11316706F7220636F6C6F72206261736564206F98
S11316806E206572720A636F6E737420657272499C
S11316906E64696361746F72203D20646F63756D5D
S11316A0656E742E676574456C656D656E744279FC
S11316B0496428276572722D696E64696361746F69
S11316C07227293B0A657272496E64696361746F9B
S11316D0722E7374796C652E6261636B67726F75B9
S11316E06E64203D20646174612E657272203D3DFC
S11316F03D2031203F2027236463333534352720B0
S11317003A202723636363273B202F2F20726564CD
S1131710206966206572726F722C2067726179206D
S11317206F74686572776973650A0A2F2F20557084
S1131730646174652074686520494E302C20494EDC
S1131740312C20494E3220696E64696361746F7272
S113175073206261736564206F6E20696E302C2083
S1131760696E312C20696E320A636F6E737420695E
S11317706E30496E64696361746F72203D20646FDA
S113178063756D656E742E676574456C656D656E05
S113179074427949642827696E302D696E646963DF
S11317A061746F7227293B0A636F6E737420696ECC
S11317B031496E64696361746F72203D20646F63A4
S11317C0756D656E742E676574456C656D656E74B4
S11317D0427949642827696E312D696E64696361B1
S11317E0746F7227293B0A636F6E737420696E32BB
S11317F0496E64696361746F72203D20646F637520
S11318006D656E742E676574456C656D656E7442A6
S11318107949642827696E322D696E64696361743D
S11318206F7227293B0A0A696E30496E64696361E5
S1131830746F722E7374796C652E6261636B677258
S11318406F756E64203D20646174612E696E302072
S11318503D3D3D2031203F20272332386137343548
S113186027203A202723636363273B202F2F2067F9
S11318707265656E206966206163746976652C20E3
S113188067726179206F74686572776973650A6934
S11318906E31496E64696361746F722E7374796C0E
S11318A0652E6261636B67726F756E64203D2064A0
S11318B06174612E696E31203D3D3D2031203F2011
S11318C0272332386137343527203A2027236363AE
S11318D063273B202F2F20677265656E2069662081
S11318E06163746976652C2067726179206F74680E
S11318F06572776973650A696E32496E64696361FA
S1131900746F722E7374796C652E6261636B677287
S11319106F756E64203D20646174612E696E32209F
S11319203D3D3D2031203F20272332386137343577
S113193027203A202723636363273B202F2F206728
S11319407265656E206966206163746976652C2012
S113195067726179206F74686572776973650A0AC2
S11319602F2F205570646174652074686520636846
S113197065636B626F782073746174652062617350
S11319806564206F6E2072656D6F74654374726C4C
S11319900A646F63756D656E742E676574456C6556
S11319A06D656E7442794964282772656D6F74653C
S11319B02D636F6E74726F6C2D636865636B626FF9
S11319C07827292E636865636B6564203D20646114
S11319D074612E72656D203D3D3D20313B0A7D29A9
S11319E00A2E6361746368286572726F72203D3ECB
S11319F020636F6E736F6C652E6572726F72282729
S1131A004572726F72206665746368696E672076CA
S1131A10616C7565733A272C206572726F7229297F
S1131A203B0A7D0A0A66756E6374696F6E2073657E
S1131A307456616C7565732829207B0A636F6E7315
S1131A407420616D70203D207061727365466C6F07
S1131A50617428646F63756D656E742E6765744573
S1131A606C656D656E74427949642827616D702DCB
S1131A70696E70757427292E76616C7565293B0A29
S1131A80636F6E737420766F6C74203D2070617286
S1131A907365466C6F617428646F63756D656E74ED
S1131AA02E676574456C656D656E7442794964286A
S1131AB027766F6C742D696E70757427292E766184
S1131AC06C7565293B0A666574636828602F7365C5
S1131AD0745F76616C733F616D703D247B616D70E2
S1131AE07D26766F6C743D247B766F6C747D6029E3
S1131AF00A2E7468656E28726573706F6E73652044
S1131B003D3E20726573706F6E73652E6A736F6EDF
S1131B102829290A2E7468656E2864617461203D41
S1131B203E207B0A69662028646174612E737563A4
S1131B306365737329207B0A666574636856616CF8
S1131B4075657328293B0A7D20656C7365207B0AC3
S1131B50616C65727428274572726F7220736574A4
S1131B6074696E672076616C75657327293B0A7DFD
S1131B700A7D290A2E6361746368286572726F7224
S1131B80203D3E20636F6E736F6C652E6572726FBD
S1131B907228274572726F722073657474696E6758
S1131BA02076616C7565733A272C206572726F72AA
S1131BB029293B0A7D0A0A66756E6374696F6E2073
S1131BC0636F6E74726F6C446576696365286465CF
S1131BD0766963652C20616374696F6E29207B0AC2
S1131BE0666574636828602F636F6E74726F6C3FF0
S1131BF06465766963653D247B6465766963657DA8
S1131C0026616374696F6E3D247B616374696F6ED2
S1131C107D60290A2E7468656E28726573706F6E14
S1131C207365203D3E20726573706F6E73652E6A16
S1131C30736F6E2829290A2E7468656E286461748E
S1131C4061203D3E207B0A69662028646174612E10
S1131C507375636365737329207B0A616C657274A1
S1131C602860247B6465766963652E746F55707093
S1131C7065724361736528297D20247B61637469DF
S1131C806F6E2E746F557070657243617365282989
S1131C907D205375636365737366756C60293B0AB5
S1131CA07D20656C7365207B0A616C6572742860A5
S1131CB04572726F7220247B616374696F6E7D69F3
S1131CC06E6720247B6465766963657D60293B0AC1
S1131CD07D0A7D290A2E6361746368286572726FB8
S1131CE072203D3E20636F6E736F6C652E65727259
S1131CF06F7228604572726F7220247B616374690D
S1131D006F6E7D696E6720247B6465766963657D8B
S1131D103A602C206572726F7229293B0A7D0A0A87
S1131D2066756E6374696F6E207365745072657343
S1131D3065742870726573657429207B0A6C6574F8
S1131D4020616D702C20766F6C743B0A69662028C4
S1131D50707265736574203D3D203129207B0A61D2
S1131D606D70203D20312E32353B0A766F6C742025
S1131D703D20352E333B0A7D20656C7365206966F2
S1131D802028707265736574203D3D203229207BC4
S1131D900A616D70203D20322E303B0A766F6C74E0
S1131DA0203D2031322E303B0A7D20656C73652046
S1131DB069662028707265736574203D3D2033295F
S1131DC0207B0A616D70203D20322E303B0A766FF5
S1131DD06C74203D2032342E303B0A7D0A646F63DC
S1131DE0756D656E742E676574456C656D656E748E
S1131DF0427949642827616D702D696E7075742766
S1131E00292E76616C7565203D20616D703B0A64F6
S1131E106F63756D656E742E676574456C656D656D
S1131E206E74427949642827766F6C742D696E70DC
S1131E30757427292E76616C7565203D20766F6C4C
S1131E40743B0A73657456616C75657328293B0A83
S1131E507D0A0A646F63756D656E742E67657445DB
S1131E606C656D656E7442794964282772656D6F7F
S1131E7074652D636F6E74726F6C2D636865636B2C
S1131E80626F7827292E6164644576656E744C69A7
S1131E907374656E657228276368616E6765272CA5
S1131EA02066756E6374696F6E2829207B0A636FE0
S1131EB06E737420616374696F6E203D2074686969
S1131EC0732E636865636B6564203F20276F6E27FC
S1131ED0203A20276F6666273B0A66657463682884
S1131EE0602F636F6E74726F6C3F646576696365AF
S1131EF03D72656D26616374696F6E3D247B616319
S1131F0074696F6E7D60290A2E7468656E28726527
S1131F1073706F6E7365203D3E20726573706F6ED3
S1131F2073652E6A736F6E2829290A2E7468656E8C
S1131F302864617461203D3E207B0A696620286420
S1131F406174612E7375636365737329207B0A63FF
S1131F506F6E736F6C652E6C6F67286052656D6F62
S1131F60746520636F6E74726F6C20247B6163747C
S1131F70696F6E7D207375636365737366756C60DA
S1131F80293B0A7D20656C7365207B0A616C657250
S1131F907428604572726F7220247B616374696F68
S1131FA06E7D696E672072656D6F746520636F6EF8
S1131FB074726F6C60293B0A7D0A7D290A2E636165
S1131FC0746368286572726F72203D3E20636F6E81
S1131FD0736F6C652E6572726F7228604572726FD2
S1131FE07220247B616374696F6E7D696E672072F1
S1131FF0656D6F746520636F6E74726F6C3A602CDC
S1132000206572726F7229293B0A7D293B0A0A7383
S11320106574496E74657276616C2866657463686C
S113202056616C7565732C2031303030293B0A3C85
S11320302F7363726970743E0A3C2F626F64793E39
S11320400A3C2F68746D6C3E0A0011241FBECFEF4A
S1132050CDBFDFE5DEBF00E00CBF18E2A0E0B0E2D8
S1132060EAE6F7E600E00BBF02C007900D92A63C3B
S1132070B107D9F721E3A6ECB8E201C01D92A23A58
S1132080B207E1F70E94202B0C94B3330C940000A8
S11320901F920F920FB60F9211248F938091A00B71
S11320A080930E208F910F900FBE0F901F90189564
S11320B080910E2008958F929F92AF92BF92CF92FB
S11320C0DF92EF92FF920F931F93CF936B017C01EA
S11320D023E0C21AD108E108F1082EE7C21624E869
S11320E0D2062EE1E206F10408F0BEC06B017C01C9
S11320F0CC0CDD1CEE1CFF1C60E078E488EE91E063
S1132100A70196010E94BC2C2F3F310541055105C2
S113211008F4ACC08FEF90E0A0E0B0E0C9EF05C0D8
S1132120281739074A075B0758F0880F991FAA1F19
S1132130BB1FCD3F0CF48160CF5FC73089F755C01A
S1132140CC230CF052C097018601000F111F221FEF
S1132150331F000F111F221F331F000F111F221FD7
S1132160331F80E098E4A8EEB1E0801B910BA20B32
S1132170B30BCE3FF4F42DEF3FEF2C1B3109C7FD19
S1132180339504C0880F991FAA1FBB1F2A95D2F745
S1132190970186013695279517950795BC01CD01C2
S11321A0600F711F821F931FA70196010E94BC2C10
S11321B038C023E02C0F4601570104C0880C991C39
S11321C0AA1CBB1C2A95D2F7A501940175016401D0
S11321D0F694E794D794C794BC01CD016C0D7D1D92
S11321E08E1D9F1D0E94BC2C1CC083E08C0FA70178
S11321F0960104C0220F331F441F551F8A95D2F73E
S1132200DA01C901B695A79597958795BC01CD01CB
S1132210785B87419E4F0E94BC2C215031094109B3
S11322205109E0EAF6E088E0818384E08283832F29
S11322308F70C295C07FC82BE0EAFBE0C78326837A
S113224083E0858388E1848380E28383E0EAF0E0AD
S1132250828182608283789480E090E280939E31D0
S113226090939F3180E01AC08FEF18C097018601C8
S1132270000F111F221F331F000F111F221F331FB6
S1132280000F111F221F331F80E098E4A8EEB1E075
S1132290801B910BA20BB30BC9EF6DCFCF911F9194
S11322A00F91FF90EF90DF90CF90BF90AF909F90F1
S11322B08F900895E0EAFBE0918195FFFDCF809334
S11322C0A00B0895CF93C82F8A3019F48DE00E9493
S11322D05A118C2F0E945A1180E090E0CF910895FA
S11322E0DC01ED91FC911197662379F021E030E057
S11322F0A90112960C9002C0440F551F0A94E2F7EC
S1132300CA019481892B8483089521E030E0A901D6
S1132310DC0112960C9002C0440F551F0A94E2F798
S1132320CA0180959481892384830895FC01A08146
S1132330B181613089F018F06230D1F0089581E004
S113234090E0028002C0880F991F0A94E2F78095FA
S11323509C9189238C93089581E090E0028002C0CF
S1132360880F991F0A94E2F79C91892B8C93089506
S113237081E090E09C01028002C0220F331F0A9486
S1132380E2F720953C9123232C93A081B181028014
S113239002C0880F991F0A94E2F780959C918923C3
S11323A08C930895DC01ED91FC91119721E030E0CC
S11323B0A90112960C9002C0440F551F0A94E2F72B
S11323C0CA01908589230895DC01ED91FC91119750
S11323D021E030E0A90112960C9002C0440F551F71
S11323E00A94E2F7CA019781892B87830895E0E470
S11323F0F6E080EB818380E4828380E58093C008EB
S113240061E08AE290E20E94961161E087E290E244
S11324100E94961161E08BE190E20E94961161E0C6
S113242088E190E20E94961161E082E190E20E94CC
S1132430961161E081E290E20E94961160E084E2EC
S113244090E20E94961160E08EE190E20E94961163
S113245060E08FE090E20E94961160E085E190E2F6
S11324600E94961160E08AE290E20E9470112FEFC0
S113247081EE94E0215080409040E1F700C00000DC
S113248061E087E290E20E94701161E08BE190E2EA
S11324900E94701161E088E190E20E94701161E095
S11324A08AE290E20E94701181E00895611571053D
S11324B069F0DC01680F791FE0ECF8E09D919383EB
S11324C092819923ECF7A617B707C1F70895611510
S11324D0710571F0DC01680F791FE0ECF8E01382FC
S11324E092819923ECF793819D93A617B707B9F7C7
S11324F008951092C308E0ECF8E082818823ECF799
S11325008091C30808958093C308E0ECF8E08281C9
S11325108823ECF7089560E087E290E20E9470114E
S1132520089561E087E290E20E947011089560E0EE
S11325308BE190E20E947011089561E08BE190E2DA
S11325400E94701108950E94671208950E94561205
S113255008950E94791208950E94831208951F928B
S11325600F920FB60F9211242F938F939F93AF93D3
S1132570BF9380916E2990916F29A0917029B09199
S113258071290196A11DB11D80936E2990936F2925
S1132590A0937029B093712980916C2990916D2931
S11325A00196873E23E0920729F080936C2990934B
S11325B06D2917C010926C2910926D29809172298F
S11325C090917329A0917429B09175290196A11D48
S11325D0B11D8093722990937329A0937429B093A9
S11325E07529BF91AF919F918F912F910F900FBE3D
S11325F00F901F901895E0E4F0E0118281E0808351
S1132600E0E0F8E085E0808383EF91E086A397A380
S113261082E08683E0EAF0E08281826082837894BB
S113262081E00895609172297091732980917429D1
S11326309091752908951F920F920FB60F9211244D
S11326408F939F9380917629909177290196809317
S11326507629909377299F918F910F900FBE0F90B9
S11326601F901895E0E8F6E082E0818381E08283A0
S113267098E3918B908BE0EAF4E093E2958398E7FA
S11326809183848380E00895E0E6F6E081E082832C
S11326909AE1908B92E09187828778940895809153
S11326A076299091772910927629109277298F3F75
S11326B0910511F008F08FEF0895880F8093A60418
S11326C0E0EAF4E0848186FFFDCF8091A40484FFD6
S11326D005C083E08093A30480E008956093A70479
S11326E0E0EAF4E0848186FFFDCF8091A40484FDB8
S11326F003C0211106C01EC083E08093A30480E0C0
S11327000895DA012150822F90E00196480F591F55
S1132710E0EAF4E08D918783848186FFFDCF848194
S113272084FF05C083E08093A30480E00895A41788
S1132730B50781F783E08093A30481E00895982F7F
S1132740990F9093A604E0EAF4E0948196FFFDCFFC
S11327509091A40494FF05C083E08093A30480E0D7
S113276008956093A704E0EAF4E0948196FFFDCF16
S11327709091A40494FF05C083E08093A30480E0B7
S11327800895E0EAF4E093E09383880F8160868300
S113279084818823ECF78091A40484FD03C0211173
S11327A006C01DC083E08093A30480E00895A42F95
S11327B0B52F40E050E0E0EAF4E0622F70E06150B1
S11327C0710992E084818823ECF787818D93461701
S11327D057070CF493834F5F5F4F421798F387E0DA
S11327E08093A30481E008950F931F93F90142306D
S11327F0E1F463837283AA27BB278C019D01000F38
S1132800111F221F331F000F111F221F331F000F20
S1132810111F221F331F682F6370685F802F807E13
S1132820680F6B7E618310831AC012821382DC01ED
S1132830CB01880F991FAA1FBB1F880F991FAA1FBE
S1132840BB1F880F991FAA1FBB1F880F991FAA1FA0
S1132850BB1F880F991FAA1FBB1F818390831F91E1
S11328600F910895CF93DF93CDB7DEB7A097CDBF77
S1132870DEBF198E1A8E1B8E1C8E1D8E1E8E1F8E11
S113288018A219821A821B821C821D8288E08E8300
S11328901F82188619861A861B861C861D861E862C
S11328A01F86188A198A1A8A1B8A1C8A1D8A8E8B8B
S11328B01F8A188E0E94B215882309F453C00E94FF
S11328C0F215882309F44EC0AE01475E5F4F63E200
S11328D080E20E941716AE01435E5F4F67E284E216
S11328E00E941716AE014F5F5F4F63E080E00E94C5
S11328F01716AE014B5F5F4F67E084E00E94171626
S1132900AE01475F5F4F6BE088E00E941716AE018F
S1132910435F5F4F63E180E10E941716AE014F5E93
S11329205F4F67E184E10E941716AE014B5E5F4F73
S11329306BE188E10E94171664E080E60E94DE15D0
S113294061E080E70E94DE1560E08AE20E94DE1505
S113295065EE89E20E94DE1563E888E20E94DE15D6
S11329600E940516A096CDBFDEBFDF91CF910895DA
S1132970CF93DF93EC01EAE7F9E21082118212822D
S113298013820E9464168093792982FD17C069819D
S11329907A818B819C812AE739E248810E94F41371
S11329A09E012A5F3F4F4D816AE779E280E40E94ED
S11329B0341681E80E94591681E033C084FD17C0A3
S11329C069817A818B819C812AE739E248810E945E
S11329D0F4139E012A5F3F4F4D816AE779E282E456
S11329E00E94341682E80E94591681E01AC086FDBE
S11329F017C069817A818B819C812AE739E24881F9
S1132A000E94F4139E012A5F3F4F4D816AE779E2E9
S1132A1084E40E94341684E80E94591681E001C0BF
S1132A2080E0DF91CF910895FF920F931F93CF938E
S1132A30DF93CDB7DEB72D97CDBFDEBF8C010E94EB
S1132A407216F82E807C09F483C0F6FE08C04DE0AF
S1132A50BE016F5F7F4F80E90E94C61509C08038B0
S1132A6039F44DE0BE016F5F7F4F84E90E94C615C3
S1132A708F2D88718031E1F582E0F80180832A810D
S1132A80898190E0880F991F880F991F880F991FDB
S1132A90092E000CAA0BBB0B322F329536953770DA
S1132AA0830F911DA11DB11D880F991FAA1FBB1F64
S1132AB0880F991FAA1FBB1F2370820F911DA11D90
S1132AC0B11DBA2FA92F982F88272B81820F911D12
S1132AD0A11DB11DBA2FA92F982F88272C81820FF1
S1132AE0911DA11DB11D81839283A383B4831BC057
S1132AF081E0F8018083898190E0880F991F880F15
S1132B00991F880F991F092E000CAA0BBB0B2A8151
S1132B10229526952770820F911DA11DB11D8183D9
S1132B209283A383B4838D81F80185838E81868308
S1132B308F81878388858087898581878A85828735
S1132B408B8583878C8584878D85858781E001C00B
S1132B5080E02D96CDBFDEBFDF91CF911F910F9105
S1132B60FF90089581E00895CF93C82F0E948B129F
S1132B7083E00E9483128C2F0E9483120E94791298
S1132B80C82F0E9491128C2FCF9108950F931F93F9
S1132B90CF93DF93D82F8B01C42F0E948B128D2FDC
S1132BA00E9483126C2F70E0C8010E9467120E9479
S1132BB09112DF91CF911F910F910895CF93DF93DD
S1132BC0D82FC62F0E948B1282E00E9483128D2F71
S1132BD00E9483128C2F0E9483120E949112DF9113
S1132BE0CF910895CF9360E88FE00E94DE15CAE08C
S1132BF08EE00E94B415807E803821F0C150C1F768
S1132C0080E001C081E0CF910895CF9360E08FE030
S1132C100E94DE15CAE08EE00E94B415807E21F089
S1132C20C150C9F780E001C081E0CF9108950F93AE
S1132C301F93CF93DF93D82FC62F8A010E948B1244
S1132C4082E00E9483128D2F0E948312CF5FCD1BDE
S1132C506C2F70E0C8010E9456120E949112DF91FD
S1132C60CF911F910F910895EF92FF920F931F93AD
S1132C70CF93DF93D82F7B01C42F89010E948B123D
S1132C808D2F0E94831264E070E0C7010E945612E7
S1132C908C2F0E9483126C2F70E0C8010E94561280
S1132CA00E949112DF91CF911F910F91FF90EF90AD
S1132CB00895CF93C82F0E948B128C2F0E948312E9
S1132CC00E949112CF910895CF930E948B1280EAB3
S1132CD00E9483120E947912C82F0E9491128C2F95
S1132CE0CF910895CF930E948B1280EB0E948312A0
S1132CF00E947912C82F0E9491128C2FCF910895AF
S1132D00CF93DF9381E08093C6286DE972E187E970
S1132D1092E10E9451286CEA72E189EA92E10E94F0
S1132D20682866EA72E183EA92E10E9488280E9498
S1132D308A292FEF83EC99E0215080409040E1F7FD
S1132D4000C000006EE670E2CB010E9418298DE2FB
S1132D5090E20E94A7296DE270E280E00E947C2A42
S1132D604FEF60E076E180E090E00E94A7244FEF0F
S1132D7060E078E180E090E00E94A72440E060E019
S1132D8073E180E090E00E94A72441E060E074E1F8
S1132D9080E090E00E94A724C1E0D0E0BE01660F6D
S1132DA0771F660F771F660F771F745D072E000C61
S1132DB0880B990B44E00E94A7242496C132D105C4
S1132DC069F781E0DF91CF9108952F923F924F925E
S1132DD05F926F927F928F929F92AF92BF92CF92A7
S1132DE0DF92EF92FF920F931F93CF93DF93CDB7B0
S1132DF0DEB7C352D840CDBFDEBF6091552020E27C
S1132E00629FB0011124685F7C4F072E000C880B71
S1132E10990B0E94402481110EC04091562050917C
S1132E20572020E862E0809155200E94BD1B8091CC
S1132E3055200E94C61C6091552030E2639FB0016A
S1132E401124685F7D4F072E000C880B990B0E949C
S1132E5040248F7109F4D3C3809155200E948626A3
S1132E60009709F4CCC320E038E0EEE7F9E2DF0193
S1132E70A9011D9241505040E1F7AC01413088E076
S1132E80580710F040E058E08E01015F174F9E0193
S1132E90255F374F6EE779E2809155200E94FF202D
S1132EA0CE018F5F974F9F938F938BEA90E29F930E
S1132EB08F938EE799E29F938F930E94972D0F90A3
S1132EC00F900F900F900F900F90019761F569EBA1
S1132ED070E2CE018F5F974F0E94E62C892B69F434
S1132EE08DEB90E20E94302DE8ECF8E28FE69BE651
S1132EF080839183128211E019C06CEC70E2CE01E0
S1132F008F5F974F0E94E62C892B79F48FEC90E227
S1132F100E94302DE8ECF8E28FE69BE680839183F3
S1132F20128211E003C010E001C010E0CE0101964E
S1132F309F938F938DED90E29F938F938EE799E209
S1132F409F938F930E94972D0F900F900F900F9047
S1132F500F900F90019761F568EE70E2CE01019633
S1132F600E94E62C892B71F48DEE90E20E94302DA4
S1132F7087E0E6E0F1E2A8ECB8E201900D928A95D0
S1132F80E1F733C36DE071E2CE0101960E94E62CB5
S1132F90892B71F482E191E20E94302D86E0EBE20C
S1132FA0F1E2A8ECB8E201900D928A95E1F71DC315
S1132FB061E371E28EE799E20E94E62C892B41F4E9
S1132FC0E8ECF8E28FE69BE68083918312820CC0E2
S1132FD011110AC0E8ECF8E285E692E78083918358
S1132FE082E790E082839383409158205091592046
S1132FF021E062E0809148290E94BD1B80937E31CC
S1133000E8ECF8E201900020E9F73197AF01485C61
S1133010584200915820109159202AE530E268EC7A
S113302078E2809148290E94C61F60937E31E7C2EE
S1133030C75ED74F2882C951D8405401AA0CBB1C83
S1133040AA0CBB1CAA0CBB1C25019DEF591A052C0C
S1133050000C66087708C301B2010E94402487313E
S113306009F099C2AE01455F574F64E0822D0E947A
S1133070FA22822D0E9486268C01009709F48BC2C5
S11330803F922F921F938F93A6E3B1E2BF93AF9326
S11330900E941C2DAEE7B9E2E0E0F8E01D92319702
S11330A0E9F7A8010130184010F040E058E06EE75D
S11330B079E2C75ED74F8881C951D8400E94C41EA7
S11330C062E571E28EE799E20E94022D0F900F9063
S11330D00F900F900F900F90892B09F4ADC089E5E4
S11330E091E20E94302DC65ED74F18821982CA51D0
S11330F0D840C501915E9C01990F440B550BCB5EE2
S1133100D74F288339834A835B83C551D840C25E35
S1133110D74FA882B982CE51D840C05ED74F88829B
S11331209982C052D840CE5DD74FE882F982C2520C
S1133130D840C75ED74FF880C951D840C45ED74F36
S1133140B880CC51D840C35ED74F9880CD51D84079
S11331500F2EFFEACF2EFDE1DF2EF02DC65ED74FF6
S113316048815981CA51D840C41AD50A51E0C516BC
S113317058E0D50610F0CB2CD92CC114D10499F009
S1133180C65ED74FE881F981CA51D840E656FD4F53
S1133190DE0111969D012C0D3D1D84918D93319678
S11331A0A217B307D1F7A601BE016F5F7F4F8F2D22
S11331B00E94AE1D06C08FE39FE10197F1F700C0A6
S11331C000008F2D0E942E268C01CB5ED74F688184
S11331D079818A819B81C551D8400E94402490E026
S11331E0982F8827990F990F0817190721F7C65E9A
S11331F0D74FA881B981CA51D840AC0DBD1DC65E58
S1133200D74FA883B983CA51D840AF3ABD4108F417
S11332109FCFC25ED74FA880B980CE51D840C05E40
S1133220D74F88809980C052D840CE5DD74FE88070
S1133230F980C252D84078C16AE671E28EE799E219
S11332400E94022D892BD9F08BE791E20E94302D48
S11332504FE250E06DE871E2C75ED74F8881C951F3
S1133260D8400E94AE1D42E855E061E273E2C75EB9
S1133270D74F8881C951D8400E94AE1D55C16DEB0E
S113328071E28EE799E20E94022D892B09F483C032
S11332907091492060914A2090914B2080914C205C
S11332A0509145204091462030914720209148205C
S11332B01F9211E01F931F921F931F921F92E09180
S11332C0C6281F92EF93E091C7281F92EF93E091D5
S11332D044201F92EF932F933F934F935F938F93C9
S11332E09F936F937F93F32FE22F252F342F4F2F2C
S11332F05E2FA62FE82F672F7A2F892F9E2F0E94EB
S1133300FE2B9F938F937F936F93809150208F9385
S113331080914F208F9380914E208F9380914D20E8
S11333208F93809154208F93809153208F93809119
S113333052208F93809151208F938BEC91E29F9335
S11333408F931F931F9221E030E02C0F3D1F3F937A
S11333502F930E94602DCF5ED74FE881F981C15130
S1133360D84001900020E9F73197AF01CF5ED74FE5
S113337088819981C151D840481B590BCDBFDEBF0C
S1133380BE016F5F7F4FC75ED74F8881C951D84058
S11333900E94AE1DC9C06BE772E28EE799E20E94FB
S11333A0022D009709F440C0EDE4F0E2FF93EF939F
S11333B041E550E25F934F9329E832E23F932F9324
S11333C00E969F938F930E94972D809150208F93F8
S11333D080914F208F9380914E208F9380914D2028
S11333E08F93809154208F93809153208F93809159
S11333F052208F93809151208F9388E992E29F937A
S11334008F930E941C2D81E08093C72843E450E0F1
S113341061EA72E2C75ED74F8881C951D8400E94E1
S1133420AE1DCDBFDEBF80C065EE72E28EE799E2CD
S11334300E94022D009709F477C021E030E02C0FA0
S11334403D1F3F932F93CC5ED74F3881C451D84052
S11334503F93CD5ED74F4881C351D8404F93A2EFDD
S1133460B2E2BF93AF930D969F938F930E94972DD3
S113347021E030E02C0F3D1F3F932F93CC5ED74FBC
S11334803881C451D8403F93CD5ED74F4881C35152
S1133490D8404F9389E093E29F938F930E941C2D11
S11334A062E173E2CE018F5F974F0E94F92CCDBF8A
S11334B0DEBF892B71F166E173E2CE018F5F974F16
S11334C00E94F92C892B69F46AE173E2CE0101961A
S11334D00E94F92C21E0892B09F020E02093C728D1
S11334E018C06DE173E2CE018F5F974F0E94F92CF3
S11334F0892B79F46AE173E2CE0101960E94F92CDA
S113350021E0892B09F020E02093442081E080937E
S1133510C72841E450E061EA72E2C75ED74F888170
S1133520C951D8400E94AE1DC75ED74F8881C9518A
S1133530D8400E94261DC501915E9C01990F440B41
S1133540550BCB5ED74F288339834A835B83C551A0
S1133550D840C75ED74FD880C951D8408D2D0E941E
S11335602E268C01CB5ED74F688179818A819B811D
S1133570C551D8400E94402490E0982F8827990F85
S1133580990F0817190751F7C75ED74F8881C9519A
S1133590D8400E94441BC301B2010E9440248111FF
S11335A015C0D7011A964D915C911B9720E061E0FC
S11335B0C75ED74F8881C951D8400E94BD1BC75EE2
S11335C0D74F8881C951D8400E94C61CB4E08B0EE5
S11335D0911CE2E0EE0EF11CFFEF2F1A3F0A28E0E7
S11335E02216310409F024CD38C061E371E28EE77C
S11335F099E20E94E62C892B09F0F6CCE1CC0F2E3F
S1133600FEE5EF2EF0E2FF2EF02D0F2EF5E02F2E2B
S1133610312CF02D0F2EF5E18F2E912CF02DAE01D3
S11336204F5F5F4FCF5ED74F48835983C151D84016
S1133630CE018F5F974FCD5ED74F88839983C35157
S1133640D840C45ED74F1882CC51D84098E0C35EAE
S1133650D74F9883CD51D840EBCCCD5DD74FCDBF5C
S1133660DEBFDF91CF911F910F91FF90EF90DF901C
S1133670CF90BF90AF909F908F907F906F905F900E
S11336804F903F902F9008958F929F92AF92BF9248
S1133690CF92DF92EF92FF92CF93DF93893008F0BD
S11336A060C0F82EC82FD0E06E01CC0CDD1CCC0C11
S11336B0DD1C8FEFC81AD80ACC0CDD1CCC0CDD1C29
S11336C0CC0CDD1C46019394092C000CAA08BB0801
S11336D040E1C501B4010E94A724C501B4010E94C0
S11336E040248111FACFB6017E5F072E000C880BAF
S11336F0990B4FE10E94A72481E090E002C0880F5B
S1133700991FFA94E2F7809590952091632930915E
S11337106429282339232093632930936429209131
S113372061293091622982239323809361299093A4
S11337306229FE01EE0FFF1FEF5AF64D108211822F
S1133740C75BD64D18828DEFD81A0D2C000CEE08ED
S1133750FF08C701B6010E9440248111FACF81E01D
S113376001C08FEFDF91CF91FF90EF90DF90CF906A
S1133770BF90AF909F908F9008954F925F926F92F9
S11337807F92AF92BF92CF92DF92EF92FF920F930C
S11337901F93CF93DF9300D01F92CDB7DEB7182FBE
S11337A0562E3A01022F893008F0D3C021E0621767
S11337B039F0621708F4CFC084E08617B0F4CBC0A8
S11337C024E030E0AE014F5F5F4F60E07FE080E0D7
S11337D090E00E94182589819A81AB81BC81892B54
S11337E08A2B8B2B11F48DEFBFC002FDB6C00023D2
S11337F0A9F021E0521621F082E0581629F00EC0FB
S1133800802F817259F4ABC005FF03C0002334F04C
S1133810A8C004FF03C000230CF0A5C0812F0E94A0
S1133820441BA12EB12C6501CC0CDD1CCC0CDD1C81
S11338302FEFC21AD20ACC0CDD1CCC0CDD1CCC0C34
S1133840DD1C402F407F4529B6010D2C000C880B50
S1133850990B0E94A72461147104A9F46090762046
S113386070907720C3010196803F2FEF920729F0D3
S1133870809376209093772006C080E090EC80932C
S1133880762090937720B6017C5F072E000C880B7E
S1133890990B472D0E94A724B6017B5F072E000CCD
S11338A0880B990B462D0E94A72426015394052CBE
S11338B0000C6608770841E0C301B2010E94A72406
S11338C0C301B2010E9440248111FACF81E090E04B
S11338D0012E02C0880F991F0A94E2F780959095F3
S11338E020916329309164292823392300FBEE2495
S11338F0E0F8F12C012E02C0EE0CFF1C0A94E2F752
S1133900E22AF32AE0926329F09264292091612942
S113391030916229822393238093612990936229B1
S1133920F501EE0FFF1FEF5AF64D10821182F501DB
S1133930E75BF64D10822DEFD21A0D2C000CEE0829
S1133940FF08C701B6010E9440248823D1F3812FC8
S11339500BC08FEF09C08BEF07C08AEF05C08AEF59
S113396003C08AEF01C08AEF2496CDBFDEBFDF918A
S1133970CF911F910F91FF90EF90DF90CF90BF9068
S1133980AF907F906F905F904F9008958F929F9229
S1133990AF92BF92CF92DF92EF92FF92CF93893092
S11339A008F045C0C82FC82ED12CCC0CDD1CCC0C83
S11339B0DD1C8FEFC81AD80ACC0CDD1CCC0CDD1C26
S11339C0CC0CDD1CB6010D2C000C880B990B0E944D
S11339D040248F70813069F546018DEF981A092CC7
S11339E0000CAA08BB08C501B4010E94402483311D
S11339F011F5D3940D2C000CEE08FF0842E0C7012A
S1133A00B6010E94A724C701B6010E944024811177
S1133A10FACF05C08C2F0E94441B8CEF0DC0C5014A
S1133A20B4010E9440248431A9F781E005C08FEFDE
S1133A3003C08BEF01C08DEFCF91FF90EF90DF902B
S1133A40CF90BF90AF909F908F9008958F929F9248
S1133A50AF92BF92CF92DF92EF92FF921F93CF93D8
S1133A60DF93893008F069C0182FC82FD0E0CC0F3D
S1133A70DD1FCC0FDD1F2196CC0FDD1FCC0FDD1F0A
S1133A80CC0FDD1FBE010D2E000C880B990B0E947C
S1133A9040248F70813009F052C06E01D3940D2CF4
S1133AA0000CEE08FF0848E0C701B6010E94A724F5
S1133AB0C701B6010E9440248111FACF81E090E051
S1133AC0012E02C0880F991F0A94E2F79C012095E9
S1133AD03095409161295091622924233523209304
S1133AE061293093622920916329309164298223CA
S1133AF09323892B31F54E018DEF981A092C000C74
S1133B00AA08BB086E018EEFD81A0D2C000CEE0823
S1133B10FF080BC0C701B6010E94402483FF05C003
S1133B20812F0E94441B83EF0DC0C501B4010E9484
S1133B3040248111EFCF81E005C08FEF03C08BEFEC
S1133B4001C080E0DF91CF911F91FF90EF90DF9053
S1133B50CF90BF90AF909F908F9008952F923F92F7
S1133B604F925F926F927F928F929F92AF92BF9289
S1133B70CF92DF92EF92FF921F93CF93DF9300D007
S1133B801F92CDB7DEB7893008F0CFC06A011B01A0
S1133B90182FE82EF12CEE0CFF1CEE0CFF1C2FEF5F
S1133BA0E21AF20AEE0CFF1CEE0CFF1CEE0CFF1CDA
S1133BB0B7010F2C000C880B990B0E9440248F70C6
S1133BC0813009F0B6C0C114D10409F4B7C027018B
S1133BD03DEF531A052C000C66087708C301B201A7
S1133BE00E944024873119F08C3109F0ACC081E087
S1133BF090E04C01012E02C0880C991C0A94E2F753
S1133C005401809161299091622988219921892BFD
S1133C1079F1C7019E5F9C01990F440B550B2983D1
S1133C203A834B835C83CA01B9010E94402484FF18
S1133C3015C040E169817A818B819C810E94A7240F
S1133C402091612930916229C40180959095822345
S1133C50932380936129909362290AC083FF78C0DB
S1133C60812F0E94441B63EF7FEF8FEF9FEF77C09C
S1133C70B701715E072E000C880B990B0E9440243B
S1133C8090E0982F8827990F990F8C159D0508F4BB
S1133C906C01812F0E942E2689839A83C301B2016D
S1133CA00E944024873151F08C3141F0812F0E94D1
S1133CB0441B69EF7FEF8FEF9FEF51C08091632921
S1133CC0909164298A219B21892B31F049815A8161
S1133CD04C155D0530F440C089819A818C159D0591
S1133CE0C0F2A601B101812F0E94DE262701539460
S1133CF0052C000C6608770840E2C301B2010E945B
S1133D00A724C301B2010E9440248111FACF8091FB
S1133D10612990916229882A992A80926129909236
S1133D206229B60180E090E01AC06FEF7FEFCB010B
S1133D3016C06BEF7FEF8FEF9FEF11C062EF7FEF45
S1133D408FEF9FEF0CC069EF7FEF8FEF9FEF07C0FE
S1133D5060E070E0CB0103C060E070E0CB0124962A
S1133D60CDBFDEBFDF91CF911F91FF90EF90DF9029
S1133D70CF90BF90AF909F908F907F906F905F9007
S1133D804F903F902F9008952F923F924F925F92C1
S1133D906F927F928F929F92AF92BF92CF92DF9257
S1133DA0EF92FF920F931F93CF93DF9300D01F9254
S1133DB0CDB7DEB7893008F0B3C06A0169837A836E
S1133DC0382E082F10E0000F111F000F111F0F5F76
S1133DD01F4F000F111F000F111F000F111FB801FB
S1133DE0012E000C880B990B0E9440248F708130A7
S1133DF009F09AC0C114D10409F49BC0B801725EE1
S1133E00072E000C880B990B0E944024282E81E079
S1133E1090E07C01032C02C0EE0CFF1C0A94E2F734
S1133E2048012DEF921A092C000CAA08BB0828019E
S1133E3031EE531A052C000C66087708832D0E9476
S1133E4086268B839C83C501B4010E94402487315C
S1133E5051F18C3101F58B819C81892BB1F5832D36
S1133E600E942E268B839C83C301B2010E944024AE
S1133E7090E0982F8827990F990F2B813C81281760
S1133E80390709F063C0832D0E94441B69EF7FEF5B
S1133E908FEF9FEF65C0832D0E94441B69EF7FEF76
S1133EA08FEF9FEF5DC080916329909164298E21EB
S1133EB09F21892B29F08B819C81892B31F43EC071
S1133EC02B813C81232B09F4B9CF822D90E0982FCC
S1133ED08827990F990F8C159D0508F46C018B8127
S1133EE09C818C159D0508F46C01A60169817A8179
S1133EF0832D0E94692748019394092C000CAA0879
S1133F00BB0840E4C501B4010E94A724C501B40163
S1133F100E9440248111FACFB60180E090E020C0D5
S1133F206FEF7FEFCB011CC06BEF7FEF8FEF9FEF45
S1133F3017C062EF7FEF8FEF9FEF12C060E070E079
S1133F40CB010EC060E070E0CB010AC08091632910
S1133F50909164298E219F21892B09F46FCFF2CF90
S1133F602496CDBFDEBFDF91CF911F910F91FF90BB
S1133F70EF90DF90CF90BF90AF909F908F907F9005
S1133F806F905F904F903F902F9008954F925F9263
S1133F907F928F929F92AF92BF92CF92DF92EF92D5
S1133FA0FF920F931F93CF93DF93893008F0F2C0F1
S1133FB069017A012B01782EC82FD0E0CC0FDD1FC8
S1133FC0CC0FDD1F2196CC0FDD1FCC0FDD1FCC0FD6
S1133FD0DD1F4E010D2E000CAA08BB08C501B4015B
S1133FE00E9440248F708250833008F0D7C0E114BF
S1133FF0F10409F4D8C0F601808190E0A0E0B0E0BB
S1134000BA2FA92F982F88272181820F911DA11DD6
S1134010B11DBA2FA92F982F88272281820F911DB5
S1134020A11DB11DBA2FA92F982F88272381820F94
S1134030911DA11DB11D892B8A2B8B2B31F4C50138
S1134040B4010E94402482FFB3C00115110531F46C
S1134050C501B4010E94402482FFAFC04E01FDEFB0
S11340609F1A092C000CAA08BB08C501B4010E94C0
S11340704024823421F08F7E823209F0A3C0BE0135
S1134080745F072E000C880B990B24E030E0A60126
S11340900E94A025BE01705F072E000C880B990BAF
S11340A0412F0E94A724BE017F5E072E000C880BBF
S11340B0990B402F0E94A724BE01715E072E000CAD
S11340C0880B990B0E94402490E0982F8827990F21
S11340D0990F8E159F0508F47C0181E090E06C0136
S11340E0072C02C0CC0CDD1C0A94E2F7872D0E9439
S11340F02E268C01C501B4010E944024882309F4B2
S113410066C080916329909164298C219D21892B1B
S113411021F00E151F0520F45FC00E151F0530F3A6
S1134120A701B201872D0E94DE264E019394092C2B
S1134130000CAA08BB0840E2C501B4010E94A724F0
S1134140C501B4010E9440248111FACFDE5F4E0103
S1134150DD0FAA08BB08C501B4010E94402484FFF6
S11341600BC040E1682D792D8A2D9B2D0E94A72438
S1134170B70180E090E033C083FFEDCF48E0682DC5
S1134180792D8A2D9B2D0E94A72463EF7FEF8FEF5B
S11341909FEF25C06FEF7FEFCB0121C06BEF7FEF67
S11341A08FEF9FEF1CC062EF7FEF8FEF9FEF17C081
S11341B064EF7FEF8FEF9FEF12C065EF7FEF8FEF1C
S11341C09FEF0DC069EF7FEF8FEF9FEF08C06CEF9B
S11341D07FEF8FEF9FEF03C060E070E0CB01DF91D2
S11341E0CF911F910F91FF90EF90DF90CF90BF90F0
S11341F0AF909F908F907F905F904F9008952F92F3
S11342003F924F925F926F927F928F929F92AF9262
S1134210BF92CF92DF92EF92FF920F931F93CF93AF
S1134220DF93CDB7DEB72E97CDBFDEBF893008F060
S1134230A8C10D871E8729873A874A016B877C8727
S1134240382EA82EB12C7501EE0CFF1CEE0CFF1CB1
S11342502FEFE21AF20AEE0CFF1CEE0CFF1CEE0C20
S1134260FF1CB7010F2C000C880B990B0E944024F3
S1134270282E8F708250833008F087C181149104F6
S113428009F488C1F501EE0FFF1FEF5AF64D808146
S11342909181892B09F08CC181E090E06C01032CA1
S11342A002C0CC0CDD1C0A94E2F727018DEF581AEA
S11342B0052C000C66087708832D0E9486268C0145
S11342C0C301B2010E944024882309F468C180918B
S11342D06329909164298C219D21892B21F001155A
S11342E0110521F461C10115110531F3822D877087
S11342F0833009F4BAC0843009F461C0823009F013
S113430008C1F501EE0FFF1FEF5AF64D8081918130
S1134310892B09F041C048E050E0BE016F5F7F4F38
S1134320832D0E94692727015394052C000C6608ED
S1134330770840E4C301B2010E94A724C301B2017B
S11343400E9440248111FACF8981E985FA8580830E
S11343508A8181838B8182838C8183838D8190E0A8
S1134360982F88272E81820F911DED85FE858083ED
S11343709183F501EE0FFF1FEF5AF64D8F8190E008
S1134380982F88272885820F911D8083918380E848
S1134390F501E75BF64D8083F501EE0FFF1FEF5A41
S11343A0F64D8081918184018815990508F48C016A
S11343B0A8016B857C85832D0E946927B5C0F50112
S11343C0EE0FFF1FEF5AF64D80819181892BD1F5B5
S11343D042E050E0BE016F5F7F4F832D0E9469274A
S11343E027015394052C000C6608770840E4C301A8
S11343F0B2010E94A724C301B2010E94402481118A
S1134400FACF898190E0382F22279A81892F90E072
S11344100297820F931FF501EE0FFF1FEF5AF64D1F
S1134420808391838B3E954040F0832D0E94441BF2
S113443067E17CEF8FEF9FEFC7C080E8F501E75B92
S1134440F64D8083F501EE0FFF1FEF5AF64D808184
S1134450918184018815990508F48C01A8016B8564
S11344607C85832D0E9469275FC0F501EE0FFF1F35
S1134470EF5AF64D80819181892BB1F546E050E0E9
S1134480BE016F5F7F4F832D0E94692727015394DC
S1134490052C000C6608770840E4C301B2010E94B1
S11344A0A724C301B2010E9440248111FACF89815B
S11344B0E985FA8580838A8181838B8182838C81DB
S11344C08383F501EE0FFF1FEF5AF64D8D8190E0C7
S11344D0982F88272E81820F911D8083918380E8F5
S11344E0F501E75BF64D8083F501EE0FFF1FEF5AF0
S11344F0F64D8081918184018815990508F48C0119
S1134500A8016B857C85832D0E9469270DC000E07E
S113451010E0B801832D0E94F427F501EE0FFF1F70
S1134520EF5AF64D008311836701D3940D2C000CD0
S1134530EE08FF0840E4C701B6010E94A724C701A2
S1134540B6010E9440248111FACFF501EE0FFF1F3E
S1134550EF5AF64D80819181801B910B808391836A
S1134560892B39F0F501E75BF64D8081816080830A
S113457004C0F501E75BF64D1082B80180E090E0DD
S113458023C06FEF7FEFCB011FC06BEF7FEF8FEF87
S11345909FEF1AC062EF7FEF8FEF9FEF15C06CEFB4
S11345A07FEF8FEF9FEF10C060E070E0CB010CC095
S11345B0822D8770833009F458CF843009F4FFCEFC
S11345C0823009F0A4CFE8CE2E96CDBFDEBFDF91B6
S11345D0CF911F910F91FF90EF90DF90CF90BF90FC
S11345E0AF909F908F907F906F905F904F903F908F
S11345F02F900895FF920F931F93CF93DF938930E9
S113460008F031C1062F10E00D30110508F02DC15E
S1134610EA01F82EF8018827E250FF4F8F4F0C94DF
S1134620DE2C6F2D70E0660F771F660F771F6F5FAC
S11346307F4F660F771F660F771F660F771F072E52
S1134640000C880B990B0E944024807F888381E0B2
S113465011C180E2F89EB0011124685F794E072EE3
S1134660000C880B990B0E944024888381E002C1CE
S113467080E2F89EB0011124685F7A4E072E000C88
S1134680880B990B0E944024888381E0F3C00F2D8E
S113469010E0000F111F000F111F0F5F1F4F000FBD
S11346A0111F000F111F000F111FB8017E5E072E8E
S11346B0000C880B990B0E944024F82EB8017D5EF3
S11346C0072E000C880B990B0E9440242F2D30E0FC
S11346D0322F2227280F311D2883398381E0CAC055
S11346E080E2F89EB0011124685F734F072E000C1E
S11346F0880B990B24E030E00E94182581E0BAC0B1
S11347000F2D10E0000F111F000F111F0F5F1F4F1F
S1134710000F111F000F111F000F111FB801705F50
S1134720072E000C880B990B0E944024F82EB80128
S11347307F5E072E000C880B990B0E9440242F2DBE
S113474030E0322F2227280F311D2883398381E05E
S113475091C00F2D10E0000F111F000F111F0F5FEC
S11347601F4F000F111F000F111F000F111FB80161
S1134770012E000C880B990B0E9440248F7081300D
S113478009F075C0B801715D072E000C880B990BF8
S11347900E94402490E08883998381E06BC08F2D30
S11347A00E942E268883998381E064C08F2D0E9405
S11347B086268883998381E05DC080E2F89EB001FB
S11347C01124685F7C4F072E000C880B990B0E9404
S11347D04024888381E04EC00F2D10E0B801660F9D
S11347E0771F660F771F6F5F7F4F660F771F660F08
S11347F0771F660F771F072E000C880B990B0E94FA
S1134800402480FF07C08F2D0E94862688839983C9
S113481081E030C0000F111FF801EF5AF64D80817E
S113482091818883998381E025C00F2D10E0B80120
S1134830660F771F660F771F6F5F7F4F660F771FB7
S1134840660F771F660F771F072E000C880B990BD6
S11348500E944024813069F0F801E75BF64D8081C5
S1134860888381E007C08FEF05C08EEF03C08BEF14
S113487001C08BEFDF91CF911F910F91FF900895AD
S1134880DF92EF92FF920F931F93CF93DF9300D0A9
S1134890CDB7DEB7F62EE72ED82E08E710E2D80102
S11348A01A96ED91FC911B971995D8011E96ED91DE
S11348B0FC911F971995F80186899789892B31F006
S11348C0E0919020F09191203097C1F408E710E234
S11348D0D8015496ED91FC9155978D2D1995D801D9
S11348E05496ED91FC9155978E2D1995D8015496B7
S11348F0ED91FC9155978F2D199508C0D982EA82C4
S1134900FB8263E070E0CE010196199508E710E29E
S1134910D8015296ED91FC9153971995F82ED80130
S11349205096ED91FC9151971995D8011C96ED91F3
S1134930FC911D9719958F2D2396CDBFDEBFDF9176
S1134940CF911F910F91FF90EF90DF9008954F92B8
S11349505F926F927F92BF92CF92DF92EF92FF921B
S11349600F931F93CF93DF9300D01F92CDB7DEB781
S11349706B017C01B42E08E710E2D8011A96ED9180
S1134980FC911B971995D8011E96ED91FC911F97E8
S1134990199526013701689442F8D8015896ED918B
S11349A0FC9159973097E1F45496ED91FC91559709
S11349B08E2D1995D8015496ED91FC9155978D2D16
S11349C01995D8015496ED91FC915597842D19951C
S11349D0D8015496ED91FC9155978B2D199509C0EA
S11349E0E982DA824B82BC8264E070E0CE010196F7
S11349F0199508E710E2D8015096ED91FC91519772
S1134A001995D8011C96ED91FC911D971995249642
S1134A10CDBFDEBFDF91CF911F910F91FF90EF903B
S1134A20DF90CF90BF907F906F905F904F900895EC
S1134A309F92AF92BF92CF92DF92EF92FF920F9329
S1134A401F93CF93DF9300D0CDB7DEB7B62EA72E3A
S1134A50982E7A01690108E710E2D8011A96ED91BF
S1134A60FC911B971995D8011E96ED91FC911F9707
S1134A701995F80186899789892B31F0E091902066
S1134A80F0919120309781F508E710E2D80154960F
S1134A90ED91FC915597892D1995D8015496ED9176
S1134AA0FC9155978A2D1995D8015496ED91FC9156
S1134AB055978B2D1995C114D10429F18701CE0C7A
S1134AC0DF1C0F2EF8E7EF2EF0E2FF2EF02DD701BA
S1134AD05296ED91FC9153971995F80181938F01AA
S1134AE0EC15FD05A1F70FC09982AA82BB8263E091
S1134AF070E0CE0101961995E0918E20F0918F20FF
S1134B00B601C701199508E710E2D8015096ED9156
S1134B10FC9151971995D8011C96ED91FC911D9724
S1134B2019952396CDBFDEBFDF91CF911F910F91D1
S1134B30FF90EF90DF90CF90BF90AF909F9008953B
S1134B404F925F926F927F928F929F92AF92BF9299
S1134B50CF92DF92EF92FF920F931F93CF93DF9345
S1134B6000D0CDB7DEB76B017C014A01590108E7DB
S1134B7010E2D8011A96ED91FC911B971995D80172
S1134B801E96ED91FC911F971995260137016894A3
S1134B9042F8D8015896ED91FC915997309769F5F0
S1134BA05496ED91FC9155978E2D1995D8015496F4
S1134BB0ED91FC9155978D2D1995D8015496ED9151
S1134BC0FC915597842D1995A114B10429F1840100
S1134BD0A80CB91C0F2EF8E7EF2EF0E2FF2EF02DF3
S1134BE0D7015496ED91FC915597D8018D918D0183
S1134BF019950A151B05A1F70FC0E982DA824B82C9
S1134C0063E070E0CE0101961995E0919020F09157
S1134C109120B501C401199508E710E2D801509616
S1134C20ED91FC9151971995D8011C96ED91FC9149
S1134C301D9719952396CDBFDEBFDF91CF911F91AC
S1134C400F91FF90EF90DF90CF90BF90AF909F9027
S1134C508F907F906F905F904F9008958F929F9266
S1134C60AF92BF92CF92DF92EF92FF920F931F9376
S1134C70CF93DF9324E0829FC00111246C012FEFB6
S1134C80C21AD20ACC0CDD1CCC0CDD1CCC0CDD1CF5
S1134C90460180EE981A092C000CAA08BB082FEDD7
S1134CA0D21A0D2C000CEE08FF0800E010E0C5013C
S1134CB0B4010E944024C82FD0E0DC2FCC27C701C8
S1134CC0B6010E944024C80FD11D209771F0C50180
S1134CD0B4010E944024082F10E0102F0027C701C0
S1134CE0B6010E944024080F111D0C171D07F9F688
S1134CF0CE01DF91CF911F910F91FF90EF90DF9044
S1134D00CF90BF90AF909F908F9008958F929F9275
S1134D10AF92BF92CF92DF92EF92FF920F931F93C5
S1134D20CF93DF9324E0829FC00111246C012FEF05
S1134D30C21AD20ACC0CDD1CCC0CDD1CCC0CDD1C44
S1134D4046018AED981A092C000CAA08BB0829ED23
S1134D50D21A0D2C000CEE08FF0800E010E0C5018B
S1134D60B4010E944024C82FD0E0DC2FCC27C70117
S1134D70B6010E944024C80FD11D209771F0C501CF
S1134D80B4010E944024082F10E0102F0027C7010F
S1134D90B6010E944024080F111D0C171D07F9F6D7
S1134DA0CE01DF91CF911F910F91FF90EF90DF9093
S1134DB0CF90BF90AF909F908F9008952F923F9285
S1134DC04F925F926F927F928F929F92AF92BF9217
S1134DD0CF92DF92EF92FF920F931F93CF93DF93C3
S1134DE000D01F92CDB7DEB74115510509F45BC061
S1134DF01A0169837A83882E912C880C991C880C5B
S1134E00991C64012FEFC21AD20ACC0CDD1CCC0C05
S1134E10DD1CCC0CDD1C26013CED531A052C000CCA
S1134E2066087708C301B2010E944024082F8BED65
S1134E30D81A0D2C000CEE08FF08C701B6010E9419
S1134E40402410E0102F0027080F111D94012E5F3D
S1134E503F4F220F331F220F331F220F331FC9016D
S1134E60330FAA0BBB0BA80160E070E0762F652F0F
S1134E70542F44274C015D01840E951EA61EB71EB7
S1134E80C501B401910149815A810E94A025020DF6
S1134E90131D412FC301B2010E94A724402FC70153
S1134EA0B6010E94A7242496CDBFDEBFDF91CF9127
S1134EB01F910F91FF90EF90DF90CF90BF90AF9034
S1134EC09F908F907F906F905F904F903F902F9026
S1134ED008952F923F924F925F926F927F928F929A
S1134EE09F92AF92BF92CF92DF92EF92FF920F9375
S1134EF01F93CF93DF9300D01F92CDB7DEB7411538
S1134F00510509F45BC01A0169837A83882E912CB8
S1134F10880C991C880C991C64012FEFC21AD20AC0
S1134F20CC0CDD1CCC0CDD1CCC0CDD1C260138EDBE
S1134F30531A052C000C66087708C301B2010E94BD
S1134F404024082F87EDD81A0D2C000CEE08FF081A
S1134F50C701B6010E94402410E0102F0027080F5B
S1134F60111D94012D5F3F4F220F331F220F331F5A
S1134F70220F331FC901330FAA0BBB0BA80160E03A
S1134F8070E0762F652F542F44274C015D01840E69
S1134F90951EA61EB71EC501B401910149815A810F
S1134FA00E941825020D131D412FC301B2010E9456
S1134FB0A724402FC701B6010E94A7242496CDBF81
S1134FC0DEBFDF91CF911F910F91FF90EF90DF90A3
S1134FD0CF90BF90AF909F908F907F906F905F9095
S1134FE04F903F902F9008958F929F92AF92BF92CF
S1134FF0CF92DF92EF92FF921F93CF93DF93EB0157
S113500024E0829FC00111246C012FEFC21AD20A3E
S1135010CC0CDD1CCC0CDD1CCC0CDD1C460188ED5D
S1135020981A092C000CAA08BB08C501B4010E94F7
S11350304024182F27EDD21A0D2C000CEE08FF087F
S1135040C701B6010E944024212F30E0322F2227CD
S1135050C80FD11DC20FD31F4D2FC501B4010E942B
S1135060A7244C2FC701B6010E94A724DF91CF913A
S11350701F91FF90EF90DF90CF90BF90AF909F90E3
S11350808F9008950895089508950895FB018081EF
S11350900895FB014083089580E0089508950895DC
S11350A00895009719F06115710559F4E8E7F0E2E5
S11350B084E498E28687978785E498E2808B918BD5
S11350C00895E8E7F0E286879787608B718B0895EF
S11350D020917820309179202227327021153105D2
S11350E0E9F3009719F06115710559F4E8E7F0E266
S11350F08CE498E2828B938B8EE498E2848B958B7C
S11351000895E8E7F0E2828B938B648B758B0895A6
S11351102091782030917920222732702115310591
S1135120E9F3009719F06115710559F4E8E7F0E225
S11351308FE498E2868B978B80E598E2808F918F3D
S11351400895E8E7F0E2868B978B608F718F08955E
S1135150CF93DF93CDB7DEB76297CDBFDEBF26E036
S113516030E0AE01435F5F4F60E079E080E090E0C3
S11351700E94182524E030E0AE014F5F5F4F60E0ED
S113518071E080E090E00E94182524E030E0AE0158
S11351904B5F5F4F60E075E080E090E00E9418256F
S11351A024E030E0AE01475F5F4F60E07FE080E0E5
S11351B090E00E94182540E860E070E0CB010E9476
S11351C0A72460E070E0CB010E94402426E030E098
S11351D0AE01435F5F4F60E079E080E090E00E94C1
S11351E0A02524E030E0AE014F5F5F4F60E071E046
S11351F080E090E00E94A02524E030E0AE014B5F07
S11352005F4F60E075E080E090E00E94A02524E01C
S113521030E0AE01475F5F4F60E07FE080E090E008
S11352200E94A0256296CDBFDEBFDF91CF91089585
S1135230EF92FF920F931F93CF93DF93EC017B01C7
S11352400E94A828209709F45AC0888181310CF063
S113525045C0FE0131969E01285F3F4F9191890F11
S11352608131F4F5E217F307C9F78E01C1E0D0E00C
S1135270F80141918F01BE01660F771F660F771FFA
S1135280660F771F715E072E000C880B990B0E9426
S1135290A7242496C132D10559F731C09191890FC1
S11352A0813104F5E217F307C9F7C1E0D0E0F70153
S11352B041917F01BE01660F771F660F771F660F4E
S11352C0771F725E072E000C880B990B0E94A7248F
S11352D02496C132D10559F780E015C08FEF13C071
S11352E08FEF11C08FEF0FC08FEF0DC0F7018081DA
S11352F08131D4F731969701285F3F4FCFCFE11426
S1135300F104A1F780E0DF91CF911F910F91FF90FD
S1135310EF90089560E07EE280E090E00E944024F7
S1135320482F4F7760E07EE280E090E00E94A7245F
S113533060E07EE280E090E00E944024482F4068D4
S113534060E07EE280E090E00E94A7240895CF937D
S1135350DF93EC0126E030E0AC0160E079E080E02E
S113536090E00E94A025AE01425F5F4F24E030E050
S113537060E071E080E090E00E94A025AE01465F0D
S11353805F4F24E030E060E075E080E090E00E9450
S1135390A025AE014A5F5F4F24E030E060E07FE08B
S11353A080E090E00E94A025E6E6F9E28A89808305
S11353B08B8981838C8982838D8983838E89809371
S11353C06529DF91CF910895CF93DF93EC0126E017
S11353D030E0AC0160E079E080E090E00E941825C4
S11353E0AE01425F5F4F24E030E060E071E080E0B6
S11353F090E00E941825AE01465F5F4F24E030E044
S113540060E075E080E090E00E941825AE014A5FFC
S11354105F4F24E030E060E07FE080E090E00E94B5
S11354201825E6E6F9E280818A8B81818B8B828163
S11354308C8B83818D8B809165298E8BDF91CF91AD
S11354400895CF93982F957C79F4C82F60E070E08D
S1135450CB010E9440244C2F482B60E070E0CB012C
S11354600E94A72480E001C08FEFCF91089560E0EF
S113547070E0CB010E9440240895CF93DF93EC01A8
S1135480488160E07BE180E090E00E94A7244A81AB
S113549060E079E180E090E00E94A724498160E027
S11354A07AE180E090E00E94A724DF91CF910895F3
S11354B01F93CF93DF93EC0160E07BE180E090E009
S11354C00E944024888360E079E180E090E00E94BB
S11354D04024182F60E07AE180E090E00E944024AC
S11354E0212F30E0322F2227280F311D29833A83C0
S11354F0DF91CF911F910895CF93DF93EB01823019
S1135500B1F028F4882349F0813061F023C084305D
S1135510B9F088F08530C9F01DC0CB010E94A729DD
S113552080E019C0CB010E94E42980E014C0888186
S11355300E94212A10C00E94372A888380E00BC071
S1135540CB010E943D2A80E006C0CB010E94582A6C
S113555080E001C08FEFDF91CF9108950E945D1329
S113556008950E949F13089580916A298061809311
S11355706A2980916B29816180936B2922E042E939
S113558050E26BE082E30E94AE2A21E04BE659E24E
S11355906DE082E30E94AE2A21E04AE659E26FE020
S11355A082E30E94AE2A0E94441308950E944F137E
S11355B00895982F92959F70990F292F220F220FEB
S11355C0920F8F70890F08950F931F93CF93DF93DA
S11355D0CDB7DEB72797CDBFDEBF8C0127E0AE0184
S11355E04F5F5F4F60E082E30E94B12A89810E948D
S11355F0D92AF80180838A810E94D92AF8018183FB
S11356008B810E94D92AF80182838C8187838D81C2
S11356100E94D92AF80183838E810E94D92AF80135
S113562084838F810E94D92A90E0F8018583968330
S11356302796CDBFDEBFDF91CF911F910F910895C3
S1135640E0E5F0E0808182608083818181FD08C093
S113565098ED81E094BF80934000218121FFFACF2F
S113566061E080EA90E20E94961160E08DE990E2A8
S11356700E94961160E08AE990E20E94961161E02E
S113568087E990E20E94961161E084E990E20E9429
S1135690961161E080EA90E20E94701160E080EA75
S11356A090E20E947011789460E072EC81E090E0E6
S11356B00E945B100E94F7110E9480160E9432140F
S11356C00E9432130E94B42A0E94FB1203EA18E2D9
S11356D0C0E8D1E30F2EFAE04F2E512C612C712C2F
S11356E0F02D6894222423F86894332431F80F2E83
S11356F0F3E08F2EF02D6894992492F80F2EF5E0A4
S1135700AF2EF02D0F2EF6E0BF2EF02D80EA90E2A2
S11357100E94E4118DE990E20E94D21161E08111AE
S113572001C060E087E990E20E9470118AE990E28A
S11357300E94D21161E0811101C060E084E990E22D
S11357400E9470118EE891E30E941415882321F0C1
S113575080EA90E20E94E4110E94581080937F3105
S11357600E94D62A882309F446C083EA90E20E9464
S1135770E42A0E941213F62EE72ED82EC92E0E9478
S11357805810CF92DF92EF92FF921F928F93E3EA29
S1135790F0E280811F928F9381811F928F93828187
S11357A01F928F9387811F928F9386818F93858118
S11357B08F9384811F928F9383811F928F931F9362
S11357C00F930E941C2D81E0888349825A826B8248
S11357D07C822D821E828F83388689869A86AB8648
S11357E0BC8687E08D87CE010E94B8148DB79EB722
S11357F046968DBF9EBF0E94E51688CF0E94112C4D
S11358000C94822C0E94742C38F00E947B2C20F083
S1135810952311F00C946B2C0C94712C11240C9482
S1135820B62C0E94932C70F3959FC1F3950F50E012
S1135830551F629FF001729FBB27F00DB11D639F3E
S1135840AA27F00DB11DAA1F649F6627B00DA11DE4
S1135850661F829F2227B00DA11D621F739FB00D8A
S1135860A11D621F839FA00D611D221F749F3327FA
S1135870A00D611D231F849F600D211D822F762F93
S11358806A2F11249F5750409AF0F1F088234AF070
S1135890EE0FFF1FBB1F661F771F881F91505040DC
S11358A0A9F79E3F510580F00C946B2C0C94B62CF8
S11358B05F3FE4F3983ED4F3869577956795B79563
S11358C0F795E7959F5FC1F7FE2B880F911D96957D
S11358D0879597F9089597F99F6780E870E060E0ED
S11358E008959FEF80EC089500240A941616170675
S11358F018060906089500240A94121613061406BD
S113590005060895092E0394000C11F4882352F01F
S1135910BB0F40F4BF2B11F460FF04C06F5F7F4FD7
S11359208F4F9F4F089557FD9058440F551F59F0BE
S11359305F3F71F04795880F97FB991F61F09F3F78
S113594079F087950895121613061406551FF2CFA1
S11359504695F1DF08C0161617061806991FF1CFF1
S113596086957105610508940895E894BB27662718
S11359707727CB0197F90895A1E21A2EAA1BBB1B26
S1135980FD010DC0AA1FBB1FEE1FFF1FA217B30707
S1135990E407F50720F0A21BB30BE40BF50B661F1D
S11359A0771F881F991F1A9469F7609570958095E1
S11359B090959B01AC01BD01CF010895EE0FFF1F2F
S11359C0881F8BBF0790F691E02D1994FB01DC0131
S11359D08D9181341CF08B350CF4805E61916134BF
S11359E01CF06B350CF4605E861B611189F3990B16
S11359F00895FB01DC018D91019080190110D9F308
S1135A00990B0895FB0151915523A9F0BF01DC01C5
S1135A104D9145174111E1F759F4CD010190002052
S1135A2049F04D9140154111C9F3FB014111EFCFEC
S1135A3081E090E001970895CF93DF93CDB7DEB76F
S1135A40AE014A5F5F4FFA0161917191AF0180919C
S1135A509E3190919F310E94B32DDF91CF91089593
S1135A600F931F93CF93DF93E0919E31F0919F3179
S1135A70238121FF1BC08C01D0E0C0E0F80181919B
S1135A808F0160919E3170919F31DB011896ED91E9
S1135A90FC911997882331F01995892B79F3DFEF5D
S1135AA0CFEFECCF8AE01995892B19F08FEF9FEF98
S1135AB002C08D2F9C2FDF91CF911F910F910895DC
S1135AC00F931F93CF93DF93CDB7DEB72E97CDBF40
S1135AD0DEBF0E891F89888D998D26E02C8309836A
S1135AE01A8397FF02C080E090E801978D839E831C
S1135AF0AE01445E5F4F6A8D7B8DCE0101960E949C
S1135B00B32D4D815E8157FD0AC02F813885421720
S1135B1053070CF49A01F801E20FF31F10822E963A
S1135B20CDBFDEBFDF91CF911F910F910895CF9329
S1135B30DF93CDB7DEB72E97CDBFDEBF85E08C8374
S1135B408C899D8989839A83AE01485E5F4F6E89F3
S1135B507F89CE0101960E9470312E96CDBFDEBFA3
S1135B60DF91CF9108952F923F924F925F926F925F
S1135B707F928F929F92AF92BF92CF92DF92EF92D9
S1135B80FF920F931F93CF93DF93CDB7DEB72B977D
S1135B90CDBFDEBF6C017B018A01FC011682178236
S1135BA0838181FFCCC1CE0101963C01F601938132
S1135BB0F70193FD859193FF81917F01882309F477
S1135BC0BAC1853239F493FD859193FF81917F01A8
S1135BD0853229F4B60190E00E94FD32E7CF912C82
S1135BE0212C312CFFE1F315D8F08B3279F038F405
S1135BF0803279F08332A1F4232D20611DC08D32CF
S1135C0061F0803369F4232D216016C0832D8260F6
S1135C10382EE32DE4603E2E2AC0F32DF8601DC01B
S1135C2037FC2DC020ED280F2A3040F08E32B9F415
S1135C3036FC81C1232D2064322E19C036FE06C0E5
S1135C408AE0989E200D1124922E11C0EAE02E9E27
S1135C50200D1124222EF32DF0623F2E08C08C3625
S1135C6021F4832D8068382E02C0883641F4F70170
S1135C7093FD859193FF81917F018111B3CF982F7B
S1135C809F7D9554933028F40C5F1F4F9FE39983B5
S1135C900DC0833631F0833771F0833509F059C074
S1135CA021C0F801808189830E5F1F4F882483946B
S1135CB0912C530113C02801F2E04F0E511CF8013E
S1135CC0A080B18036FE03C0692D70E002C06FEF82
S1135CD07FEFC5010E94B4324C018201F32DFF779E
S1135CE03F2E16C0280122E0420E511CF801A0806C
